:02000002B0004C
:1040000000400B00F6530B00000006000C000502F8
:084010000401B41400000000DB
:044018001C510B002C
:10401C00034613F8012B002AFBD1181A01387047FC
:10402C0009480A49884208B505D0094A824202D09B
:10403C00121A00F0C3FF0748074A0021121A00F0B9
:10404C00CBFF014808BD00BF40E603205C530B00CA
:10405C00ACE60320ACE60320F0E7032070B5074E76
:10406C00074C00F065FEA41BA4080025AC4200D14F
:10407C0070BD56F8043B98470135F7E714530B0015
:10408C0038530B0000F013B808B500F077F8BDE812
:10409C00084000F005BE00F06DBA00F073BA00786D
:1040AC00B0FA80F04009704701230370704708B5DF
:1040BC000121052000F0ACFE0121062000F0A8FE35
:1040CC000121072000F0A4FEBDE8084000211320C8
:1040DC0000F09EBEDFED106AF0EEC07AB0EE407AD2
:1040EC0036EEE70AB5EEC00AF1EE10FA04D4B5EEDE
:1040FC00400AF1EE10FA0ED19FED080A37EE400A95
:10410C00B0EEC00A36EEC00AB5EEC00AF1EE10FAF7
:10411C0048BF9FED030A704700007F4300403F44B7
:10412C0000000000DFED087A30EE670AF0EEC07A8E
:10413C009FED060A30EE670AB5EEC00AF1EE10FAF2
:10414C0048BF9FED030A70470000FF4300007F4308
:10415C0000000000DFED077A30EE670AB0EEC00A0F
:10416C0037EEC00AB5EEC00AF1EE10FA48BF9FED6B
:10417C00020A704700007F430000000000B52DEDDF
:10418C00028B132083B000F054FE40F2FD23009309
:10419C000023194640F6FF7200F00CFA07EE900A65
:1041AC00F8EEE78A9FED168AB0EE680AFFF792FFE9
:1041BC0038EE400A0520FCEEC07A17EE901A00F09B
:1041CC004FFEB0EE680AFFF7ADFF38EE400A06204E
:1041DC00FCEEC07A17EE901A00F042FEB0EE680AC0
:1041EC00FFF7B8FF38EE400A0720FCEEC07A17EE56
:1041FC00901A03B0BDEC028B5DF804EB00F030BEFE
:10420C0000007F4310B5074B074A9A600024C3E9AE
:10421C000044032000F022F921460120BDE81040A3
:10422C0000F024B9ACE603200000FFFF08B5024BF8
:10423C001B685B6C019308BD4802030008B5024B78
:10424C001B685B68019308BD1802030008B5024B9C
:10425C001B685B69019308BD1802030008B5024B8B
:10426C001B685B68019308BD2C02030008B5024B68
:10427C001B689B68019308BD2C02030008B5024B18
:10428C001B68DB68019308BD2C02030008B5024BC8
:10429C001B689B6A019308BD2C02030008B5024BF6
:1042AC001B681B6B019308BD2C02030008B5024B65
:1042BC001B689B6F019308BD2C02030008B5024BD1
:1042CC001B681B6A019308BD2802030008B5024B4A
:1042DC001B685B6A019308BD2802030008B5024BFA
:1042EC001B689B6A019308BD2802030008B5024BAA
:1042FC001B68DB6A019308BD2802030008B5024B5A
:10430C001B681B6B019308BD2802030008B5024B08
:10431C001B685B6B019308BD2802030008B5024BB8
:10432C001B681B6C019308BD2802030008B5024BE7
:10433C001B685B69019308BD6402030008B5024B5E
:10434C001B689B68019308BD6802030008B5024B0B
:10435C001B68DB68019308BD6802030008B5024BBB
:10436C001B68DB69019308BD3002030008B5024BE2
:10437C001B681B6A019308BD3002030008B5024B91
:10438C001B68DB68019308BD3C02030008B5024BB7
:10439C001B681B69019308BD3C02030008B5024B66
:1043AC001B685B69019308BD3C02030008B5024B16
:1043BC001B689B69019308BD3C02030008B5024BC6
:1043CC001B68DB69019308BD3C02030008B5024B76
:1043DC001B681B6A019308BD3C02030008B5024B25
:1043EC001B689B6A019308BD3C02030008B5024B95
:1043FC001B681B6C019308BD3C02030008B5024B03
:10440C001B681B68019308BD4C02030008B5024BE6
:10441C001B681B69019308BD4C02030008B5024BD5
:10442C001B685B69019308BD4C02030008B5024B85
:10443C001B689B69019308BD4C02030008B5024B35
:10444C001B68DB69019308BD4C02030008B5024BE5
:10445C001B681B6A019308BD4C02030008B5024B94
:10446C001B685B68019308BD2002030008B5024B72
:10447C001B68DB6A019308BD2002030008B5034BDF
:10448C001B68D3F88830019308BD0000200203009C
:10449C0008B5034B1B68D3F89430019308BD00009A
:1044AC002002030008B5024B1B68DB6B019308BDAF
:1044BC004402030008B5024B1B685B68019308BDFE
:1044CC004002030008B5024B1B689B68019308BDB2
:1044DC004002030008B5024B1B68DB68019308BD62
:1044EC004002030008B5024B1B681B69019308BD11
:1044FC004002030008B5024B1B685B69019308BDC1
:10450C004002030008B5024B1B689B69019308BD70
:10451C004002030008B5024B1B68DB69019308BD20
:10452C004002030008B5024B1B681B6A019308BDCF
:10453C004002030008B5024B1B681B6B019308BDBE
:10454C004002030008B5024B1B685B6B019308BD6E
:10455C004002030008B5024B1B681B6C019308BD9D
:10456C004002030008B5024B1B685B6C019308BD4D
:10457C004002030008B5024B1B681B68019308BD81
:10458C001C02030008B5024B1B685B68019308BD55
:10459C001C02030008B5024B1B681B6C019308BD81
:1045AC001C02030008B5024B1B685B6C019308BD31
:1045BC001C0203008A4210B507D0441A0298C01A94
:1045CC004443501A94FBF0F0184410BD02480023E9
:1045DC000360FFF72BBE00BFB8E603200022406843
:1045EC001146FFF79FBF002240681146FFF7AABF94
:1045FC0040680022FFF79EBF4068002281F0010155
:10460C00FFF788BF002340681A461946FFF77ABFA8
:10461C00002340681A461946FFF76CBF0022406819
:10462C001146FFF75FBF002240681146FFF74ABFF3
:10463C00406800220221FFF74DBF002340681A4654
:10464C00FFF738BF024B03225A60024A1A607047C8
:10465C00BCE6032038510B007047F8B506461546EA
:10466C000C468F18BC4206D0336814F8011B9B68AB
:10467C0030469847F6E72846F8BD007C0022FFF745
:10468C001DBE007C0021FFF721BE007C0021FFF73E
:10469C0025BE007C0021FFF729BE007C0021FFF71E
:1046AC002DBE10B514210446FFF7F7FC204610BDB3
:1046BC0038B5044615464FF47A730022C4E9012339
:1046CC00094B2174084623602946FFF727FEBF30AB
:1046DC0008D16B69DB0705D56868FFF753FFE868FD
:1046EC00FFF750FF204638BD74510B00704710B5D2
:1046FC0018210446FFF7D1FC204610BDF0B5037D10
:10470C00062B8DB00E4600F104074FF0000412D0BA
:10471C0000F1080515F8011D0A22304600F043F996
:10472C00AF42044419D0002CF4D02E21304600F0B6
:10473C0037F90444EEE72F236A4639460A208DF8F0
:10474C000040FFF7F3FD6846FFF762FC3368024652
:10475C00DB68694630469847044620460DB0F0BDEC
:10476C0010B5054B0446112240F8043B002100F023
:10477C0033FC204610BD00BF9C510B000346074A7A
:10478C0010B543F8042B01F1100251F8044B43F817
:10479C00044B9142F9D10A781A7010BD9C510B0050
:1047AC0010B59DF8084044EA032343EA024242EA6A
:1047BC00016104234160037510BD000007B5064B71
:1047CC000360CB7800938B784A780978FFF7E8FF81
:1047DC0003B05DF804FB00BF9C510B00014B024A77
:1047EC001A607047C4E60320A8510B0000234068F0
:1047FC001A46FFF75FBE406800220221FFF76ABE2F
:10480C00002240681146FFF75DBE00224068114649
:10481C00FFF768BE002340681A461946FFF76ABEC8
:10482C00002340681A461946FFF76CBE4068002109
:10483C00FFF790BE40680021FFF794BE406800224D
:10484C0081F00101FFF766BE40680022FFF772BEDF
:10485C00002240681146FFF775BE002240681146E1
:10486C00FFF760BE2DE9F04395B014460D460746A0
:10487C00FFF776FF00211C220DA8009100F0ACFB85
:10488C0040230C9320466B460CAA0021FFF75EFDDB
:10489C00044600284BD1024601216868FFF722FE2E
:1048AC000221804622466868FFF71CFE009E814666
:1048BC002146002E3BD0002939D17368022B03D03E
:1048CC000A2B11D0F669F4E7B8F1000FFAD0716930
:1048DC0006A8043107ADFFF771FF0FCD3C1D0FC4C7
:1048EC002B6823704146EDE7B9F1000FEAD07469EB
:1048FC00102201A800F070FB06238DF8143001ADD6
:10490C0004F108031834186859682A4603C208339E
:10491C00A3421546F7D101A906A807ADFFF72EFF54
:10492C000FCD3C1D0FC42B6823704946CAE7009875
:10493C00FFF704FD384615B0BDE8F083024B034A7F
:10494C001A6000225A607047C8E60320B4510B006D
:10495C00F8B506460D468F180024BD420CD03368BE
:10496C0015F8011B9B6830469847031E01DB1C445D
:10497C00F3E7002C08BF1C462046F8BD13B50446CF
:10498C00084659B10191FFF743FB23680199DB6895
:10499C000246204602B0BDE81040184702B010BDD8
:1049AC0003689B68184730B58BB00023012A8DF83B
:1049BC00243098BF0A2209AC0D46B1FBF2F101FB81
:1049CC00125303F0FF03092B94BF30333733DBB2A0
:1049DC00AA4204F8013DEFD92146FFF7CFFF0BB0F7
:1049EC0030BD0000014B00229A607047D0E60320D6
:1049FC0010B5044608462170FFF7B0FC0023636035
:104A0C00204610BD054B02221A60054B054A9A60E0
:104A1C000020C3E90000FFF721BD00BFECE6032036
:104A2C00E0E603200000FFFF024B1A68024B1A60FD
:104A3C00704700BF40E60320F0E603207047417446
:104A4C00704708B5007CFFF7C9FC20EAE07008BD90
:104A5C0008B5007CFFF79AFC20EAE07008BD08B5A9
:104A6C00007CFFF7A3FC40EAE07008BD08B5007CB1
:104A7C00FFF794FC40EAE07008BD007CFFF79EBC99
:104A8C0037B5457C04462DB1207C03B0BDE83040E1
:104A9C00FFF774BC007C0191FFF7A0FC0028019982
:104AAC00F2DC284603B030BD10B514210446FFF7E4
:104ABC00F4FA204610BD000010B54FF47A7304468A
:104ACC00084611460022C4E90123044B236001234C
:104ADC0020746374FFF78AFC204610BD0C520B0047
:104AEC00417470477047704708B50021007CFFF790
:104AFC009DFC40EAE07008BD08B50121007CFFF781
:104B0C0095FC40EAE07008BD08B5007CFFF786FC18
:104B1C0020EAE07008BD08B5007CFFF777FC20EABE
:104B2C00E07008BD13B50446007C0191FFF776FCDC
:104B3C000028019901DC607C20B1207CFFF77EFC11
:104B4C0020EAE07002B010BD007CFFF77FBC10B50E
:104B5C0014210446FFF7A1FA204610BD10B54FF4FE
:104B6C007A73044608460021C4E90113044B236000
:104B7C000123207463741146FFF740FC204610BDDE
:104B8C003C520B0010B514220446002100F024FA0C
:104B9C00204610BD10B50F4C88B003A8FFF7F2FFEC
:104BAC002178BFF35B8F11F001010FD120460191E9
:104BBC00FFF775FA019948B103AA0748FFF7CEFF32
:104BCC002046FFF771FA054800F0F2F9024808B0E8
:104BDC0010BD00BFF4E60320F8E60320F14A0B00F9
:104BEC00002240681146FFF77DBC00224068114648
:104BFC00FFF798BC002240681146FFF7A3BC406841
:104C0C000022FFF797BC4068002281F00101FFF7FA
:104C1C0081BC002340681A461946FFF773BC002379
:104C2C0040681A461946FFF765BC002240681146D9
:104C3C00FFF748BC406800220221FFF74BBC002361
:104C4C0040681A46FFF736BC024B04225A60024AEF
:104C5C001A6070470CE703206C520B00014B186074
:104C6C00704700BF44E6032008B50B4B43B1FFF778
:104C7C0091FF03681B699847002801DDAFF30080A2
:104C8C00064B43B100F06EF903681B699847002886
:104C9C0001DDAFF3008008BD000000000000000043
:104CAC0008B5FFF7E1FFFFF7D1FA014B186008BD1B
:104CBC0028E703200548064A064908B5121A00F0F1
:104CCC007DF9054B054A1A6008BD00BF00F40320AE
:104CDC0004F40320C8530B0000F403201E1C279A75
:104CEC0007B5002300931A466FF07701FFF7D0FB4E
:104CFC0003B05DF804FB000007B543880A2B08D00D
:104D0C00502B0BD1094B1B684BB103B05DF804EB76
:104D1C001847FFF7E5FF03B05DF804FB0023009391
:104D2C001A466FF07701FFF7B3FBF4E718E703209F
:104D3C0010B512480021FFF735FC114B1A68114BC6
:104D4C009A42114B0CBF012200221A7001D0FFF7BE
:104D5C00B1FFFFF773FA044600F046F90B4B13B1A1
:104D6C002046AFF3008000210848FFF79BFBBDE80D
:104D7C00104007480021FFF781BB00BF694C0B00B6
:104D8C0000F403201E1C279A14E7032000000000E7
:104D9C00054D0B00232813B502D9002002B010BD1D
:104DAC00A0F10B03022B1AD8174C2178BFF35B8FA1
:104DBC0011F001010BD120460191FFF770F9019917
:104DCC0028B11248FFF714FE2046FFF76DF90F4B80
:104DDC001878FFF7CBFA0028DFD10120DEE7012895
:104DEC0009D800F07FF80021007CFFF78FFA80F0E3
:104DFC000100C0B2D2E709380128EED800F0B2F8B1
:104E0C00007CFFF7E3FAF2E71CE7032020E703201E
:104E1C00232838B504460D460AD8FF2908D0FFF7D9
:104E2C00B9FF28B129462046BDE83840FFF71EBA25
:104E3C0038BD0D2810B504469CBF0E34A4B22046D4
:104E4C00FFF7A8FF50B103212046FFF707FA03280C
:104E5C0004D12046BDE81040FFF720BA002010BD59
:104E6C0038B504460D46FFF795FFF0B104212046F6
:104E7C00FFF7F4F9042805D1A9B22046BDE8384063
:104E8C00FFF704BA02212046FFF7E8F902280CD1FB
:104E9C002046FFF7F3F9012801D0042805D1294653
:104EAC002046BDE83840FFF701BA38BD7047000016
:104EBC0038B50A4B0360012304464361084920209E
:104ECC0000F074F8202560600549A560284600F0C4
:104EDC006DF8C4E90305204638BD00BF1800010079
:104EEC00A0520B0030B50E4D2978BFF35B8F11F03B
:104EFC00010487B011D12846FFF7D1F868B1684694
:104F0C00FFF7D6FF6A4621460648FFF7D1FB284635
:104F1C00FFF7CAF8044800F04BF8024807B030BD60
:104F2C002CE7032030E70320B94E0B00704700003C
:104F3C0038B5044614252A46002100F04DF825808A
:104F4C004025074925812846258200F02FF8044981
:104F5C006060284600F02AF8E060204638BD00BFAB
:104F6C00A0520B0030B50E4D2978BFF35B8F11F0BA
:104F7C00010487B011D12846FFF791F868B101A858
:104F8C00FFF7D6FF01AA21460648FFF795FD2846F4
:104F9C00FFF78AF8044800F00BF8024807B030BD60
:104FAC0044E7032048E70320394F0B00FFF773B8A1
:104FBC00002301461A46184600F044B80A449142B0
:104FCC0000F1FF3300D1704710B511F8014B03F815
:104FDC00014F9142F9D110BD02440346934200D1D6
:104FEC00704703F8011BF9E738B5104B1D68AB6B24
:104FFC000446B3B91820FFF7BDFA0246A86320B9DE
:10500C000B4B0C484221FFF7C5FA0B490B4BC0E97F
:10501C0000130B4B83600B23838100210120C2E919
:10502C000401AB6B00221C615A6138BD44E60320BD
:10503C00A1520B00B8520B000E33CDAB34126DE6FF
:10504C00ECDE05002DE9F843DFF8B8800646D8F809
:10505C0000001F460D46914600F056F8254B1C6883
:10506C0034B9254C1C60254B13B11B68C4F888302F
:10507C0063681F2B07DDD8F8000000F047F84FF0ED
:10508C00FF30BDE8F8834EB3D4F8880088B91C4BC8
:10509C0023B9D8F8000000F038F8F0E74FF484702A
:1050AC00FFF768FA0028F4D00023C0E94033C4F8B5
:1050BC008800636840F8239001229A4000EB83013A
:1050CC00D0F800311343C0F80031022EC1F88070C3
:1050DC0002BFD0F804311343C0F804316368D8F828
:1050EC0000005A1C0233626044F8235000F00EF8A2
:1050FC000020C6E7E8E703205CE70320000000007F
:10510C0081450B00A8E603207047704770470000EC
:10511C002D400B0069400B0091400B0095400B009B
:10512C0000000000000000000000000047460B00DB
:10513C003D460B0033460B0029460B001D460B0069
:10514C0011460B0039480B0041480B0005460B007B
:10515C00FD450B00F3450B00E9450B0071480B00B6
:10516C00000000000000000065460B00AF460B007D
:10517C0087460B0067460B008F460B0097460B00CB
:10518C009F460B00A7460B0000000000000000002B
:10519C0009470B00F9460B00FB460B0061707000D1
:1051AC000000000000000000F9470B0003480B0052
:1051BC000D480B0017480B0021480B002D480B0025
:1051CC0039480B0041480B0049480B0055480B006F
:1051DC005D480B0067480B0071480B0025592D25C5
:1051EC006D2D25645425483A254D3A2553257A00D2
:1051FC0061736374696D65000000000000000000BD
:10520C00494A0B00B54A0B008D4A0B005D490B0057
:10521C005D4A0B00794A0B006B4A0B00874A0B0066
:10522C004B4A0B004F4A0B0000000000000000002E
:10523C00F34A0B005B4B0B00314B0B005D490B0031
:10524C00234B0B00F54A0B00054B0B00554B0B0089
:10525C00154B0B00ED4A0B00000000000000000095
:10526C004B4C0B00414C0B00374C0B00ED4B0B0027
:10527C002B4C0B001F4C0B0039480B0041480B000A
:10528C00134C0B000B4C0B00014C0B00F74B0B00A1
:10529C0071480B00005245454E54206D616C6C6F8B
:1052AC006320737563636565646564002F746D704A
:1052BC002F6A656E6B696E732D4743432D31302D0C
:1052CC00706970656C696E652D34385F32303230C0
:1052DC00313132345F313630363138303633392F64
:1052EC007372632F6E65776C69622F6E65776C696C
:1052FC00622F6C6962632F7374646C69622F7261C4
:10530C006E642E630000000011420B00D9450B00A7
:10531C0051460B00E9470B0049490B00F1490B00C2
:0C532C00114A0B00354A0B00554C0B00D9
:10533800040000001400000003000000474E550060
:10534800F9C57C1260194CDBE3607902F9281F115A
:04535800B62EFB4B27
:10535C00FC510B0048E60320000000000000000098
:10536C000000000000000000000000000000000031
:10537C000000000000000000000000000000000021
:10538C000000000000000000000000000000000011
:10539C000000000000000000000000000000000001
:1053AC0000000000000000000000000000000000F1
:0C53BC000000000000000000ECE70320EF
:0453C80000000000E1
:1053D20000000102030405060708090A0B0C0D0E62
:1053E2000F101112131415161718191A1B1C1D1E53
:0453F2001F20280050
:0453F600785634129F
:04000003B000401CED
:00000001FF
